{
  "_format": "hh-sol-artifact-1",
  "contractName": "CertifyDoc",
  "sourceName": "contracts/CertifyDoc.sol",
  "abi": [
    {
      "anonymous": false,
      "inputs": [
        {
          "indexed": true,
          "internalType": "bytes32",
          "name": "docHash",
          "type": "bytes32"
        },
        {
          "indexed": true,
          "internalType": "uint256",
          "name": "index",
          "type": "uint256"
        }
      ],
      "name": "CertificateIssued",
      "type": "event"
    },
    {
      "inputs": [
        {
          "internalType": "uint256",
          "name": "index",
          "type": "uint256"
        }
      ],
      "name": "callCertificate",
      "outputs": [
        {
          "internalType": "bytes32",
          "name": "",
          "type": "bytes32"
        },
        {
          "internalType": "address",
          "name": "",
          "type": "address"
        },
        {
          "internalType": "address",
          "name": "",
          "type": "address"
        },
        {
          "internalType": "string",
          "name": "",
          "type": "string"
        },
        {
          "internalType": "uint256",
          "name": "",
          "type": "uint256"
        }
      ],
      "stateMutability": "view",
      "type": "function"
    },
    {
      "inputs": [
        {
          "internalType": "uint256",
          "name": "",
          "type": "uint256"
        }
      ],
      "name": "certificates",
      "outputs": [
        {
          "internalType": "bytes32",
          "name": "docHash",
          "type": "bytes32"
        },
        {
          "internalType": "address",
          "name": "issuer",
          "type": "address"
        },
        {
          "internalType": "address",
          "name": "recipient",
          "type": "address"
        },
        {
          "internalType": "uint256",
          "name": "datetime",
          "type": "uint256"
        },
        {
          "internalType": "string",
          "name": "description",
          "type": "string"
        }
      ],
      "stateMutability": "view",
      "type": "function"
    },
    {
      "inputs": [
        {
          "internalType": "bytes32",
          "name": "_docHash",
          "type": "bytes32"
        },
        {
          "internalType": "address",
          "name": "_recipient",
          "type": "address"
        },
        {
          "internalType": "string",
          "name": "_description",
          "type": "string"
        }
      ],
      "name": "certify",
      "outputs": [],
      "stateMutability": "nonpayable",
      "type": "function"
    },
    {
      "inputs": [
        {
          "internalType": "bytes32",
          "name": "_docHash",
          "type": "bytes32"
        }
      ],
      "name": "checkDocHash",
      "outputs": [
        {
          "internalType": "uint256[]",
          "name": "",
          "type": "uint256[]"
        }
      ],
      "stateMutability": "view",
      "type": "function"
    },
    {
      "inputs": [
        {
          "internalType": "address",
          "name": "_requestedAddress",
          "type": "address"
        }
      ],
      "name": "checkIssuer",
      "outputs": [
        {
          "internalType": "uint256[]",
          "name": "",
          "type": "uint256[]"
        }
      ],
      "stateMutability": "view",
      "type": "function"
    },
    {
      "inputs": [
        {
          "internalType": "bytes32",
          "name": "_docHash",
          "type": "bytes32"
        }
      ],
      "name": "checkOwner",
      "outputs": [
        {
          "internalType": "bool",
          "name": "",
          "type": "bool"
        }
      ],
      "stateMutability": "view",
      "type": "function"
    },
    {
      "inputs": [
        {
          "internalType": "address",
          "name": "_requestedAddress",
          "type": "address"
        }
      ],
      "name": "checkRecipient",
      "outputs": [
        {
          "internalType": "uint256[]",
          "name": "",
          "type": "uint256[]"
        }
      ],
      "stateMutability": "view",
      "type": "function"
    },
    {
      "inputs": [
        {
          "internalType": "bytes32",
          "name": "",
          "type": "bytes32"
        },
        {
          "internalType": "uint256",
          "name": "",
          "type": "uint256"
        }
      ],
      "name": "docHashMap",
      "outputs": [
        {
          "internalType": "uint256",
          "name": "",
          "type": "uint256"
        }
      ],
      "stateMutability": "view",
      "type": "function"
    },
    {
      "inputs": [
        {
          "internalType": "bytes32",
          "name": "",
          "type": "bytes32"
        }
      ],
      "name": "docHashOwnerMap",
      "outputs": [
        {
          "internalType": "address",
          "name": "",
          "type": "address"
        }
      ],
      "stateMutability": "view",
      "type": "function"
    },
    {
      "inputs": [
        {
          "internalType": "address",
          "name": "",
          "type": "address"
        },
        {
          "internalType": "uint256",
          "name": "",
          "type": "uint256"
        }
      ],
      "name": "issuerMap",
      "outputs": [
        {
          "internalType": "uint256",
          "name": "",
          "type": "uint256"
        }
      ],
      "stateMutability": "view",
      "type": "function"
    },
    {
      "inputs": [
        {
          "internalType": "address",
          "name": "",
          "type": "address"
        },
        {
          "internalType": "uint256",
          "name": "",
          "type": "uint256"
        }
      ],
      "name": "recipientMap",
      "outputs": [
        {
          "internalType": "uint256",
          "name": "",
          "type": "uint256"
        }
      ],
      "stateMutability": "view",
      "type": "function"
    },
    {
      "inputs": [
        {
          "internalType": "uint256",
          "name": "index",
          "type": "uint256"
        }
      ],
      "name": "revokeCertificate",
      "outputs": [],
      "stateMutability": "nonpayable",
      "type": "function"
    }
  ],
  "bytecode": "0x608060405234801561001057600080fd5b5061178f806100206000396000f3fe608060405234801561001057600080fd5b50600436106100b45760003560e01c8063663b3e2211610071578063663b3e22146101b55780637a42a9cd146101e9578063b56a912814610219578063bfd64c8f14610249578063c6f3a9aa14610279578063f814bcd2146102a9576100b4565b806306f5497e146100b957806330a1c0a6146100d557806338e2ca521461010957806344f37815146101395780634901447214610155578063538b907914610185575b600080fd5b6100d360048036038101906100ce91906111c4565b6102d9565b005b6100ef60048036038101906100ea91906111c4565b6105c2565b604051610100959493929190611362565b60405180910390f35b610123600480360381019061011e91906110f8565b610824565b6040516101309190611325565b60405180910390f35b610153600480360381019061014e9190611121565b61088f565b005b61016f600480360381019061016a91906110bc565b610b9c565b60405161017c9190611436565b60405180910390f35b61019f600480360381019061019a91906110bc565b610bcd565b6040516101ac9190611436565b60405180910390f35b6101cf60048036038101906101ca91906111c4565b610bfe565b6040516101e09594939291906113bc565b60405180910390f35b61020360048036038101906101fe91906110f8565b610d0c565b6040516102109190611347565b60405180910390f35b610233600480360381019061022e9190611188565b610d77565b6040516102409190611436565b60405180910390f35b610263600480360381019061025e91906110f8565b610da8565b604051610270919061130a565b60405180910390f35b610293600480360381019061028e9190611093565b610ddb565b6040516102a09190611325565b60405180910390f35b6102c360048036038101906102be9190611093565b610e72565b6040516102d09190611325565b60405180910390f35b60008181548110610313577f4e487b7100000000000000000000000000000000000000000000000000000000600052603260045260246000fd5b906000526020600020906005020160010160009054906101000a900473ffffffffffffffffffffffffffffffffffffffff1673ffffffffffffffffffffffffffffffffffffffff163373ffffffffffffffffffffffffffffffffffffffff1614806104145750600081815481106103b3577f4e487b7100000000000000000000000000000000000000000000000000000000600052603260045260246000fd5b906000526020600020906005020160020160009054906101000a900473ffffffffffffffffffffffffffffffffffffffff1673ffffffffffffffffffffffffffffffffffffffff163373ffffffffffffffffffffffffffffffffffffffff16145b806104c7575060046000808381548110610457577f4e487b7100000000000000000000000000000000000000000000000000000000600052603260045260246000fd5b906000526020600020906005020160000154815260200190815260200160002060009054906101000a900473ffffffffffffffffffffffffffffffffffffffff1673ffffffffffffffffffffffffffffffffffffffff163373ffffffffffffffffffffffffffffffffffffffff16145b610506576040517f08c379a00000000000000000000000000000000000000000000000000000000081526004016104fd90611416565b60405180910390fd5b60008181548110610540577f4e487b7100000000000000000000000000000000000000000000000000000000600052603260045260246000fd5b90600052602060002090600502016000808201600090556001820160006101000a81549073ffffffffffffffffffffffffffffffffffffffff02191690556002820160006101000a81549073ffffffffffffffffffffffffffffffffffffffff021916905560038201600090556004820160006105bd9190610f09565b505050565b600080600060606000808681548110610604577f4e487b7100000000000000000000000000000000000000000000000000000000600052603260045260246000fd5b90600052602060002090600502016000015460008781548110610650577f4e487b7100000000000000000000000000000000000000000000000000000000600052603260045260246000fd5b906000526020600020906005020160010160009054906101000a900473ffffffffffffffffffffffffffffffffffffffff16600088815481106106bc577f4e487b7100000000000000000000000000000000000000000000000000000000600052603260045260246000fd5b906000526020600020906005020160020160009054906101000a900473ffffffffffffffffffffffffffffffffffffffff1660008981548110610728577f4e487b7100000000000000000000000000000000000000000000000000000000600052603260045260246000fd5b906000526020600020906005020160040160008a81548110610773577f4e487b7100000000000000000000000000000000000000000000000000000000600052603260045260246000fd5b906000526020600020906005020160030154818054610791906115c4565b80601f01602080910402602001604051908101604052809291908181526020018280546107bd906115c4565b801561080a5780601f106107df5761010080835404028352916020019161080a565b820191906000526020600020905b8154815290600101906020018083116107ed57829003601f168201915b505050505091509450945094509450945091939590929450565b60606001600083815260200190815260200160002080548060200260200160405190810160405280929190818152602001828054801561088357602002820191906000526020600020905b81548152602001906001019080831161086f575b50505050509050919050565b6000806001816001815401808255809150500390600052602060002090600502019050838160000181905550338160010160006101000a81548173ffffffffffffffffffffffffffffffffffffffff021916908373ffffffffffffffffffffffffffffffffffffffff160217905550828160020160006101000a81548173ffffffffffffffffffffffffffffffffffffffff021916908373ffffffffffffffffffffffffffffffffffffffff16021790555081816004019080519060200190610959929190610f49565b5042816003018190555060016000858152602001908152602001600020600160008054905061098891906114fc565b9080600181540180825580915050600190039060005260206000200160009091909190915055600260003373ffffffffffffffffffffffffffffffffffffffff1673ffffffffffffffffffffffffffffffffffffffff16815260200190815260200160002060016000805490506109ff91906114fc565b9080600181540180825580915050600190039060005260206000200160009091909190915055600360008473ffffffffffffffffffffffffffffffffffffffff1673ffffffffffffffffffffffffffffffffffffffff1681526020019081526020016000206001600080549050610a7691906114fc565b9080600181540180825580915050600190039060005260206000200160009091909190915055600073ffffffffffffffffffffffffffffffffffffffff166004600086815260200190815260200160002060009054906101000a900473ffffffffffffffffffffffffffffffffffffffff1673ffffffffffffffffffffffffffffffffffffffff161415610b5757336004600086815260200190815260200160002060006101000a81548173ffffffffffffffffffffffffffffffffffffffff021916908373ffffffffffffffffffffffffffffffffffffffff1602179055505b6001600080549050610b6991906114fc565b847fb373023449b41c09a963fbc6f475bf6574114ed41b6a41eb8ee5ac78301ff0ff60405160405180910390a350505050565b60026020528160005260406000208181548110610bb857600080fd5b90600052602060002001600091509150505481565b60036020528160005260406000208181548110610be957600080fd5b90600052602060002001600091509150505481565b60008181548110610c0e57600080fd5b90600052602060002090600502016000915090508060000154908060010160009054906101000a900473ffffffffffffffffffffffffffffffffffffffff16908060020160009054906101000a900473ffffffffffffffffffffffffffffffffffffffff1690806003015490806004018054610c89906115c4565b80601f0160208091040260200160405190810160405280929190818152602001828054610cb5906115c4565b8015610d025780601f10610cd757610100808354040283529160200191610d02565b820191906000526020600020905b815481529060010190602001808311610ce557829003601f168201915b5050505050905085565b60006004600083815260200190815260200160002060009054906101000a900473ffffffffffffffffffffffffffffffffffffffff1673ffffffffffffffffffffffffffffffffffffffff163373ffffffffffffffffffffffffffffffffffffffff16149050919050565b60016020528160005260406000208181548110610d9357600080fd5b90600052602060002001600091509150505481565b60046020528060005260406000206000915054906101000a900473ffffffffffffffffffffffffffffffffffffffff1681565b6060600260008373ffffffffffffffffffffffffffffffffffffffff1673ffffffffffffffffffffffffffffffffffffffff168152602001908152602001600020805480602002602001604051908101604052809291908181526020018280548015610e6657602002820191906000526020600020905b815481526020019060010190808311610e52575b50505050509050919050565b6060600360008373ffffffffffffffffffffffffffffffffffffffff1673ffffffffffffffffffffffffffffffffffffffff168152602001908152602001600020805480602002602001604051908101604052809291908181526020018280548015610efd57602002820191906000526020600020905b815481526020019060010190808311610ee9575b50505050509050919050565b508054610f15906115c4565b6000825580601f10610f275750610f46565b601f016020900490600052602060002090810190610f459190610fcf565b5b50565b828054610f55906115c4565b90600052602060002090601f016020900481019282610f775760008555610fbe565b82601f10610f9057805160ff1916838001178555610fbe565b82800160010185558215610fbe579182015b82811115610fbd578251825591602001919060010190610fa2565b5b509050610fcb9190610fcf565b5090565b5b80821115610fe8576000816000905550600101610fd0565b5090565b6000610fff610ffa84611476565b611451565b90508281526020810184848401111561101757600080fd5b611022848285611582565b509392505050565b60008135905061103981611714565b92915050565b60008135905061104e8161172b565b92915050565b600082601f83011261106557600080fd5b8135611075848260208601610fec565b91505092915050565b60008135905061108d81611742565b92915050565b6000602082840312156110a557600080fd5b60006110b38482850161102a565b91505092915050565b600080604083850312156110cf57600080fd5b60006110dd8582860161102a565b92505060206110ee8582860161107e565b9150509250929050565b60006020828403121561110a57600080fd5b60006111188482850161103f565b91505092915050565b60008060006060848603121561113657600080fd5b60006111448682870161103f565b93505060206111558682870161102a565b925050604084013567ffffffffffffffff81111561117257600080fd5b61117e86828701611054565b9150509250925092565b6000806040838503121561119b57600080fd5b60006111a98582860161103f565b92505060206111ba8582860161107e565b9150509250929050565b6000602082840312156111d657600080fd5b60006111e48482850161107e565b91505092915050565b60006111f983836112ec565b60208301905092915050565b61120e81611530565b82525050565b600061121f826114b7565b61122981856114da565b9350611234836114a7565b8060005b8381101561126557815161124c88826111ed565b9750611257836114cd565b925050600181019050611238565b5085935050505092915050565b61127b81611542565b82525050565b61128a8161154e565b82525050565b600061129b826114c2565b6112a581856114eb565b93506112b5818560208601611591565b6112be816116b4565b840191505092915050565b60006112d6602f836114eb565b91506112e1826116c5565b604082019050919050565b6112f581611578565b82525050565b61130481611578565b82525050565b600060208201905061131f6000830184611205565b92915050565b6000602082019050818103600083015261133f8184611214565b905092915050565b600060208201905061135c6000830184611272565b92915050565b600060a0820190506113776000830188611281565b6113846020830187611205565b6113916040830186611205565b81810360608301526113a38185611290565b90506113b260808301846112fb565b9695505050505050565b600060a0820190506113d16000830188611281565b6113de6020830187611205565b6113eb6040830186611205565b6113f860608301856112fb565b818103608083015261140a8184611290565b90509695505050505050565b6000602082019050818103600083015261142f816112c9565b9050919050565b600060208201905061144b60008301846112fb565b92915050565b600061145b61146c565b905061146782826115f6565b919050565b6000604051905090565b600067ffffffffffffffff82111561149157611490611685565b5b61149a826116b4565b9050602081019050919050565b6000819050602082019050919050565b600081519050919050565b600081519050919050565b6000602082019050919050565b600082825260208201905092915050565b600082825260208201905092915050565b600061150782611578565b915061151283611578565b92508282101561152557611524611627565b5b828203905092915050565b600061153b82611558565b9050919050565b60008115159050919050565b6000819050919050565b600073ffffffffffffffffffffffffffffffffffffffff82169050919050565b6000819050919050565b82818337600083830152505050565b60005b838110156115af578082015181840152602081019050611594565b838111156115be576000848401525b50505050565b600060028204905060018216806115dc57607f821691505b602082108114156115f0576115ef611656565b5b50919050565b6115ff826116b4565b810181811067ffffffffffffffff8211171561161e5761161d611685565b5b80604052505050565b7f4e487b7100000000000000000000000000000000000000000000000000000000600052601160045260246000fd5b7f4e487b7100000000000000000000000000000000000000000000000000000000600052602260045260246000fd5b7f4e487b7100000000000000000000000000000000000000000000000000000000600052604160045260246000fd5b6000601f19601f8301169050919050565b7f596f7520617265206e6f7420616c6c6f77656420746f207265766f6b6520746860008201527f69732063657274696669636174652e0000000000000000000000000000000000602082015250565b61171d81611530565b811461172857600080fd5b50565b6117348161154e565b811461173f57600080fd5b50565b61174b81611578565b811461175657600080fd5b5056fea2646970667358221220b5e419baa752115ccc5d8ab8b75cad661f0b18e0aca2407060ab3175b631e60e64736f6c63430008040033",
  "linkReferences": {},
  "deployedLinkReferences": {}
}